:100000000040002011000000FD040000FD0400007D
:1000100010B501F039F900F035FC00F08FFA00005E
:1000200070B572B699221C4B1C4D1A601C4B953A48
:100030001A601C4B7C321A601B4B763A1A601B4AC2
:100040001B4B18201A6002221A4B00241A6012233C
:100050002B6001F071F8F022174B12011A60174A59
:10006000174B18491A604022174B0D201C60174B84
:100070001A6000F095FF0D2000F0BEFF144B200029
:100080001C6001F009F9112303222B60114B1A6047
:10009000114B1D321A6070BD000302403000104049
:1000A0000000044008000440000304403104000044
:1000B00008030440180304400003014040FF00808F
:1000C0000000014025130000280003400401014006
:1000D0000C02224030003040000E3F400000000083
:1000E0000000000000000000000000000000000010
:1000F0000000000000000000000000000000000000
:1001000010B5064C2378002B07D1054B002B02D0ED
:10011000044800E000BF0123237010BD4801002007
:1001200000000000FC1F0000084B10B5002B03D09E
:100130000749084800E000BF07480368002B00D1CA
:1001400010BD064B002BFBD09847F9E700000000DC
:100150004C010020FC1F0000B8000020000000003F
:1001600010B5054C200001F04FF820686368010BC2
:10017000000589B2184310BDAC010020F8B5FFF7A7
:10018000EFFF00250C0422002B00801859412B00A2
:10019000220C801A99410B04040C1C43584B594DF6
:1001A000E118594B0A091A40584B09011940584B9C
:1001B0000A43D21893082B40564D92002A4013430D
:1001C000554AAC46554E9B18554D5A085B00324077
:1001D0002B401343534A54499B18544A1F0A1B028D
:1001E0000F4013403B4307013A00F027504D3F03B7
:1001F0002B60504B174023401F434F4B4B4AFF1877
:100200003B0A3F0217400B404C4A3B439B183D4A78
:100210009F08DB43174062469B0013401F43484B37
:10022000394AFF18FB431B091340384A3F01174066
:10023000444A3B439B183A4A5F085B0037401340EF
:100240003B436B60F02307041B053B403E4F374A9E
:1002500027403B43F02707401F433C4B0002FF1859
:10026000FB433F021B0A17400B40394A3B439B1894
:100270001F09DB43244A1B011740244A13401F4334
:10028000344B204AFF18FF43BB0813406246BF00AF
:100290001740314A3B439B18214A5F085B003740B7
:1002A00013403B43AB602D4B1C40F0231B01184017
:1002B0000443E0436400400814400640284B2643B2
:1002C000F6183309F643104A360113400F4A164018
:1002D0001E43244B154AF618F34336021B0A1940F5
:1002E0003240214B0A43D218D243064993080B40AF
:1002F000614692000A401A431C4BD218EA60F8BDCE
:1003000059C9947F333333330F0F0F0FF0F0F0F0F0
:100310004E384E0ACCCCCCCCDC84235755555555A1
:10032000AAAAAAAA247BDCA8FF00FF0000FF00FF06
:10033000B4010020FFFFF0FF41BD4B3946F6AC3F52
:10034000DAE94D414299797E0FFFFFF02DB1F6B207
:10035000B2C3ED1B731F94F5DBAEE973FFF0FFFF33
:1003600038E47C2339DEC7D99A0FEC4100C1C62896
:100370000023F0B585B06946114A9A1812785A548C
:100380000133102BF7D1009B1FBA019B1EBA029BB1
:100390001DBA039B1CBAFFF7F1FE0A4B00201A6836
:1003A00097420AD15A68964207D19A68954204D179
:1003B000D868001B4342434158B2C0B205B0F0BDFB
:1003C000F0F7FF0FB401002010B590B040220B49A8
:1003D000684601F0D7F9002318006C4608495A42D4
:1003E00059180978A25C914201D00130C0B2013B9A
:1003F0001A004032F1D110B010BDC04600200000FC
:10040000FF27000010B50A2000F022FE094800F086
:1004100065F80A2000F01CFE8022074B52001A608B
:10042000064A074B1A604022064B1A6000F076FC21
:1004300010BDC046402000000003014041FF008085
:1004400000000140B000002010B500F0D1F800F02D
:10045000D1FF002811D1063000F0B4FF012000F0D8
:10046000BDFF00F0C7FF002803D100F0ABFFFFF78E
:10047000C9FF002000F0A6FF14E000F0DBFF002819
:1004800010D1063000F0BEFF012000F0C7FF00F0E1
:10049000D1FF002803D100F0B5FFFFF7B3FF002024
:1004A00000F0B0FFFFF764FF002805D0642000F0E3
:1004B000CFFD00F033FC08E0FFF786FF002801D1F4
:1004C00000F02CFC044800F009F8642000F0C0FDA6
:1004D00000F09CF8FEE7C046532000000FB400B5C2
:1004E000B5B036AA02CA02A8019201F075F902A8B5
:1004F00000F036F935B008BC04B0184710B501F06B
:1005000015F903680C2B00D1FEE7FEE7030010B5D8
:1005100080240849084A08686401C3189A1AA2424C
:1005200001DC0B6005E001F001F90C230360012000
:10053000404210BDBC00002018020020F8B5002584
:100540000F49104B01394A1C14D000221F685C6807
:100550009E68A018B24203D0B858A0500432F8E701
:100560000200DE68141AA64201D020C2FAE7103356
:100570000139E8E701F0E0F8FFF766FFFEE7C04663
:10058000010000001C210000002370B50B480C4C3A
:100590000C4D9A002100032B00D8A958013381503B
:1005A0002C2BF6D1FFF73CFD074B1A68002A00D12F
:1005B0001A608022054B92051A6070BD0000002071
:1005C000FD04000000000000B000002008ED00E085
:1005D0008021064A10B5136809060B4313600820F2
:1005E00000F00AFD00F096F810BDC046000025405E
:1005F00010B5054C2378002B03D100F01DF8012322
:100600002370FFF7E5FF10BD6401002010B508203E
:1006100000F0FCFC00F090F8054A082013685B002D
:100620005B0813600022034B1A6000F0F9FC10BD58
:1006300000002540880F254070B5002407210425BF
:100640001C4A1D4B08201A601C4B1D4A1C601D4B88
:100650001A601D4B1D4A13601D4A11601D4A063960
:1006600014601D4A11601D4A13601D4B1C601D4B18
:100670001D6000F0CBFC0321082000F09DFC1A490E
:10068000082000F08DFC194B1C60194B1C60194BA5
:100690001C60194B1C60194B1D60194B1C601A68BB
:1006A000184B1A80184B1C60184B1C60184B1C70A0
:1006B00070BDC0460C0000020000254040002540EF
:1006C00001000A0048002540070000800003254083
:1006D0000403254010032540440025400002254026
:1006E0000402254050002540E9140000880E2540F2
:1006F000C80E2540480F2540080F2540C80F25404B
:10070000880F25406C010020C8010020C401002092
:10071000CC010020F021054A13688B4360390B435C
:100720001360034B1A88034B1A60704700030240A2
:100730006C010020880F2540F021064A13688B4386
:100740001360054B1A68E423DB001340034A13804F
:100750007047C04600030240880F25406C0100200E
:1007600010B504000134631E1878002802D000F090
:10077000A1FEF7E710BD004770B506000D0014009C
:10078000002802D0002000F055FC00207519002C34
:1007900005D0013C2B191B78C018C0B2F7E770BD1B
:1007A000FF23020070B59A43C0B01300541C6A4680
:1007B000FF34D51A1E78EE540133A342FAD1C3B2E6
:1007C000D45C8C4205D0000AD15480B2110000F0F4
:1007D0003BFB40B070BD0000013810B50B2830D88D
:1007E0000902494200F002FF06080A0C0E1014121A
:1007F00016191B20174B13E0174B16E0174B0AE096
:10080000174B12E0174B0BE0174B09E0174B02E0B8
:10081000174B00E0174BC91817E0174B05E0174BB3
:10082000C9180878C0B214E0154BC9180A7848787E
:100830008C780002230418430300C8781343000691
:1008400006E0002000F0F6FB00210B78487800025B
:10085000184310BDC0FF0100C1FF0100C5FF01002A
:10086000C9FF0100D0FF0100D1FF0100D6FF010048
:10087000D2FF0100D4FF0100D8FF0100DCFF01001E
:10088000E0FF01000C4B10B51A68102313400B4A0F
:1008900000D113601368802B0DD1002402202100A9
:1008A0001460FFF799FFA04205D021000220FFF756
:1008B00093FFFFF760FF10BD54000340B00000201D
:1008C000F8B5010004000320FFF786FF21000600B1
:1008D0000420FFF781FF210007000620FFF77CFFBF
:1008E0000025012828D021000320FFF775FF0136DD
:1008F0003602F7192E0001300002B84209D20378FF
:100900005A1ED2B2FD2A00D80126ED18EDB20130F0
:10091000F3E721000120FFF75FFF6D42EBB20625F0
:10092000834209D1002E07D0044B24026042C01834
:100930000121FFF735FF00252800F8BDD1FF010098
:10094000F0B5C24CA54400F009FE62B6002700973E
:100950000197962103AC46ADFF23220049002800F1
:1009600000F004FE0028F4D12188062900D8AFE168
:100970002A780423012A5CD16E88F21D8A4200D9AC
:1009800086E0962149008A4200D981E0AA1992792D
:10099000172A4ED1F3189BB2002B08D0DCAAAC4921
:1009A000D21852181278013B801880B2F3E7AB19C5
:1009B0005A7940421B79120280B21A4308238242BC
:1009C00037D167E0342B00D0D6E0009B012B00D05C
:1009D0007EE1032E00D07BE180220021520091A80D
:1009E000802700F0D8FE7F00182191ABD819FF3185
:1009F00002ABF21EC91800F0C5FE0423F619FF333E
:100A0000B6B29E4200D01BE116228B21FF3202AB10
:100A10009B18490002AA521810781B78000218434C
:100A20008C4B0700984200D824E1FF3BFF3B00932A
:100A30000933002546A8012143702B0AC370002307
:100A400002AA06320170291D1580857089B200291D
:100A500009D0DCAC7E4E6418A419247801391B1926
:100A60009BB289B2F3E7DCA97B4C49195B420C19B4
:100A70009BB22370794C1B0A0C192370784B0735F5
:100A8000C91817230B70A9B27F3300F0A0FD60E7EF
:100A90000323CEE76B782C79180031380A282ED939
:100AA000704A1568002D26D0009A012A25D106AC7F
:100AB00002AA13725681002147AE0C22200005962F
:100AC00000F069FEA660210004A8A8472623A58897
:100AD000FF339D4202D9A368B34207D0A268002A1F
:100AE00001D1002D04D12368DBB2A3E70E23A0E7D8
:100AF0000E2315009EE705239CE7052399E700F0E8
:100B00007FFD0B001B00CFFF61FF4300CFFF4900BB
:100B10005D0061FF7B009200009B012B00D0D7E0BD
:100B2000002E00D0D4E03000FFF7CAFE434243411C
:100B30002B713300009D7DE7009B012B00D0C7E0A7
:100B4000012E00D0C4E0002C00D0C1E0464B1B6851
:100B50001B685A0CD2B2002A02D1DB03DB0D01E084
:100B600080239B002B711B0A6B71FF23AB71FE3B33
:100B7000EB71002304255DE7009B012B00D0A7E06B
:100B8000022E00D8A4E02FE7009B012B00D09FE0AD
:100B90000027DEE6009B012B00D099E02C33F519ED
:100BA000FF339D4200DD73E791ABD819320047A9AE
:100BB00000F0E8FD0023AFB21D003BE7062E00D099
:100BC00086E02A4A06AB94461000190014C814C1E6
:100BD0006246013EF6B29019A919007A0979884255
:100BE00076D1002EF5D147AA03CB03C201233700EB
:100BF0000093082533001DE7009B012B68D1032ECD
:100C000066D116228B21FF3202AB9B18490002AA43
:100C1000521816781B7836021E430E4B9E4259D945
:100C2000F63BFF3B05E70020FFF74AFE002802D114
:100C300080220F4B1A6000F095FC00F0FDF947E0B0
:100C400001230027009302333D00F3E68CFCFFFFF5
:100C5000A7FDFFFFFF010000ACFDFFFFADFDFFFFA3
:100C6000AEFDFFFF70010020C00000209C200000AE
:100C7000B0000020274B1B681A68130AD2B29BB23F
:100C8000002A01D001339BB26402381984B29C421D
:100C900014D3019B002B0BD180221900520006A80F
:100CA00000F079FD06A91C4800F0CEF8012301935D
:100CB00091A9200000F0C8F8002804D001230027E3
:100CC00000930933C0E70123070000930300BBE74B
:100CD0000423AEE680226102891909025200002035
:100CE000FFF74AFD0500002C0ED10B4B9E420BD1A5
:100CF00021000520FFF770FD21002D1A0620FFF7C7
:100D00006BFDEDB22D1AEDB26D4246AB1D710023A5
:100D100001258FE6C0000020FF01000070B5002013
:100D2000FFF7CEFD431E98410624134D40422B6829
:100D300004401A68C021C03A0020FFF71DFD6B680F
:100D40001B78181AC0B2834203D12B681B68002B92
:100D500002D1002000F06EF9084B19681A004029F2
:100D600001D0002C03D000231360FFF7E9FD80229F
:100D70001A6000F061F970BDC0000020B0000020D2
:100D800082B06A460B4B0C4900930C4B01930C4B01
:100D90001A600C4A1160C0461A68120F0F2A04D05C
:100DA0001A680020120F0A2A01D01868C0B202B0D7
:100DB0007047C046B6E900001600008074010020AC
:100DC0000800104004001040094B0A4A0A491A6002
:100DD0000A4A1160C0461A68120F0F2A04D01A6816
:100DE0000020120F0A2A01D01868C0B27047C0460E
:100DF00008001040B6E80000150000800400104014
:100E000082B06A460B4B0C4900930C4B01930C4B80
:100E10001A600C4A1160C0461A68120F0F2A04D0DB
:100E20001A680020120F0A2A01D01868C0B202B056
:100E30007047C046B6EA0000170000807401002029
:100E40000800104004001040F0B50024304BC7B03B
:100E5000029406000394984255D8A14253D08022B0
:100E600006A8520000F08EFC2A4B2B4D0493FF2362
:100E70002A492B4A04AF7B602F600A60C0462A686B
:100E80000191120F0F2A03D02A68120F0A2A01D0EB
:100E90002C681C400294029B002B36D100F0DDFA36
:100EA0000400FFF76DFF0390039B002B02D1FFF7B7
:100EB0008BFF0290029B002B16D11A4A1A4904920A
:100EC000049A0198360416430496134A2F60016071
:100ED000C0462968090F0F2903D01168090F0A2994
:100EE00001D01368DBB20293039B002B07D1FFF7FD
:100EF00087FF0390039B002B01D0039B02932000EC
:100F000000F0AFFA01E004230293029847B0F0BD6D
:100F1000FF010000B6D70000080010400400104098
:100F200004000080B6D800000500008070B5050000
:100F300000F093FA0400102D04D803210E4A136820
:100F40008B4307E0202D07D803210B4A13688B43FE
:100F500002390B4313600AE0302D05D80321064AFD
:100F600013688B430139F4E7002000F063F8200098
:100F700000F077FA70BDC04630001040024A034BC3
:100F800011680B401360704700002240FFFFFFBF55
:100F9000024B18684000C00F7047C0460000224056
:100FA0001B2800D901BE034B8000C31818681960C4
:100FB0007047C04640000020F8B504000E00032929
:100FC00000D901BE1B2C00D901BE032725003D40DE
:100FD000BD400635AF40AE4000F03FFAA408054BD7
:100FE000A400E4182368BB431E43266000F039FACE
:100FF000F8BDC04600E400E01F2318401E3B8340BC
:10100000014A13607047C04600E100E01F2318400A
:101010001E3B8340014A13607047C04680E100E0F8
:101020001F2318401E3B8340014A13607047C0468F
:1010300080E200E001BE7047034A044913689BB296
:101040000B4313607047C0460CED00E00400FA0546
:1010500070B5802504002D02064BAC4205D95868B6
:1010600000F0F2F9044BE418F6E79868604300F0EA
:10107000EBF970BDC80000200080FFFF37B500F01D
:10108000FDF8002842D000F0E8F91C21204B214A4D
:101090001B6812689B008A400B40920F1833D340A4
:1010A00080251D491D4A04000868ED0110401C4AB6
:1010B0005A435219D20B013A0243192B01D8194B4A
:1010C0000EE0194D19481818EB18A0251A3B0078A6
:1010D0001B786D031B182A43FF2B00D9FF239B05A8
:1010E0001A43134D0A602B6830200193FFF71EFF4F
:1010F0008021104AC905136814200B431360FFF7C1
:10110000A7FF019B20002B6000F0ABF937BDC04664
:10111000080F0340280003400800224000F800C0E8
:1011200040420F000000D43FAA2000004DF3FF0F03
:101130003000104000002240F7B50500183D0400C3
:10114000182D46D80126244B3700EB409F4340D151
:1011500000F083F90190FFF71BFF0097002802D0F1
:10116000FFF70CFF009607271C4E1D4A33681D49E8
:10117000BB4333601C4BE3181B78DBB213601B4A84
:101180001368BB4313601A4B0A68E31818787F236F
:101190009A43034013430B60322000F055F9182C9A
:1011A0000ED033681C3CA408BB433C401C43346055
:1011B000322000F049F93368AD08BB431D43356068
:1011C000009B012B01D1FFF759FF019800F049F96D
:1011D00000E001BEF7BDC04611111101080F034028
:1011E0000C0F0340180F03404DF3FF0F100F034087
:1011F00034F3FF0F10B5034B1B7B584300F024F969
:1012000010BDC046C8000020144B1A78144BD1B250
:1012100001601B781B020B431A000360114B1B7803
:101220001B041343104A0360127812061343036031
:101230000E4B1A780E4BD1B241601B781B020B4348
:101240001A0043600B4B1B781B0413430A4A43608C
:1012500012781206134343607047C04678F2FF0FBE
:1012600079F2FF0F7AF2FF0F7BF2FF0F7CF2FF0F94
:101270007DF2FF0F7EF2FF0F7FF2FF0F014B186828
:10128000C00F704700002240014A024B1A607047AD
:101290006588EDAC3800034070B5154D04002B682F
:1012A000144E9B0F9B07984215D0032233687C2075
:1012B000934333602B689B0F00D09030FFF79AFF69
:1012C00000F0CBF82B68A40F9B009B08A4071C43DD
:1012D0002C6000F0C6F803223368934319002B6892
:1012E0009A0F5342534101330B43336070BDC046E4
:1012F0000C0222401402224010B5040000F0ADF8A8
:101300000549064A0B681440054A134023430B6005
:101310000B6800F0A6F810BD10022240040404007F
:10132000FBFBFBFF042270B5224C2368134213D051
:1013300021490B6813420CD0204B5D6908681540A9
:10134000A84308605969914359619B68002B00D0FC
:1013500098470420FFF7D0FF80232268DB001A4261
:1013600015D015490A681A420DD0144A5569086803
:101370002B40984308605169114B0B405361D3686F
:10138000002B00D098478020C000FFF7B5FF8023D6
:101390002268DB021A420CD0074A12681A4204D0B3
:1013A000064B1B69002B00D098478020C002FFF736
:1013B000A3FF70BD10022240DC0000208C01002041
:1013C000FFFBFFFF034A044B116840020B40184328
:1013D0001060704708030440FFF1FFFF0823044931
:1013E000C0000A689A43D2B2034013430B607047AF
:1013F00000030440024B18680007C00F7047C04646
:1014000004030440034A044B116880010B40184355
:1014100010607047080004403FFEFFFF04230449AA
:1014200080000A689A43D2B2034013430B607047AE
:1014300000000440024B18684007C00F7047C046C8
:1014400004000440000000000230800803D0013096
:101450000238FCD1C046C0467047EFF3108072B628
:10146000704780F310887047084B094A1968136861
:101470000020994208D013680133412B00D10300AA
:101480000449C85C1360C0B27047C046C801002060
:10149000C4010020CD010020044B1868044B1A68D9
:1014A0001B68904200D24130C01A7047C80100202A
:1014B000C40100201F2204490B681340082BFBD0F5
:1014C000024B18607047C046080225404002254084
:1014D00070B504004518AC4204D02078FFF7EAFF4D
:1014E0000134F8E770BD0000134B70B51B68002B8A
:1014F00000D09847114B1B685B071CD520241F2088
:101500000F490B680133412B00D100230D4A1568A8
:101510000D4AAB4203D113680C4B1C7004E01268F7
:101520000B4DD2B2EA540B600A4B1B680342E8D160
:101530000422094B1A6070BD68010020CC0F2540C1
:10154000C8010020C401002040032540CC01002038
:10155000CD01002008032540C00F254010B5FFF73E
:1015600047F810BD10B5FFF751F810BDF8B50400ED
:101570000F0016000120002C28D0002926D00A25B3
:101580005D43FFF789FF002810D0FFF785FF0500B6
:10159000AE20FFF72FFEFFF77FFF8542F5D1390020
:1015A000AF4200D929003180651807E00120013DD4
:1015B000FFF74EFD002DE4D1102007E0AC4204D02F
:1015C000FFF752FF20700134F8E70020F8BD70B536
:1015D00001230C001500002805D0002903D0FFF7D7
:1015E00077FF00232C80180070BD000002B4714604
:1015F00049084900095C49008E4402BC7047C04656
:1016000003B47146490840004900095E49008E4410
:1016100003BC7047002243088B4274D303098B42FA
:101620005FD3030A8B4244D3030B8B4228D3030CB2
:101630008B420DD3FF22090212BA030C8B4202D354
:101640001212090265D0030B8B4219D300E0090A7C
:10165000C30B8B4201D3CB03C01A5241830B8B4285
:1016600001D38B03C01A5241430B8B4201D34B036E
:10167000C01A5241030B8B4201D30B03C01A5241D3
:10168000C30A8B4201D3CB02C01A5241830A8B4258
:1016900001D38B02C01A5241430A8B4201D34B0241
:1016A000C01A5241030A8B4201D30B02C01A5241A5
:1016B000CDD2C3098B4201D3CB01C01A5241830959
:1016C0008B4201D38B01C01A524143098B4201D393
:1016D0004B01C01A524103098B4201D30B01C01ABE
:1016E0005241C3088B4201D3CB00C01A5241830838
:1016F0008B4201D38B00C01A524143088B4201D365
:101700004B00C01A5241411A00D2014652411046C4
:101710007047FFE701B5002000F006F802BDC046A3
:101720000029F7D076E770477047C046014B18682C
:101730007047C046400100200E4B70B500251E00CA
:101740000D4CE41AA410A54204D0AB00F3589847FE
:101750000135F8E700F0D0FC084B00251E00084CCE
:10176000E41AA410A54204D0AB00F3589847013501
:10177000F8E770BD042100000421000004210000EE
:101780000C210000002310B59A4203D0CC5CC45455
:101790000133F9E710BD03008218934202D019709B
:1017A0000133FAE77047000030B59BB00091049117
:1017B00008496D4602910591012182244942E9813F
:1017C000A4006946AC8100F075F80023009A1370FC
:1017D0001BB030BDFFFFFF7F10B513000A000100F2
:1017E00002480068FFF7E0FF10BDC046400100203E
:1017F000F0B58E6885B007000C00039201939E42FD
:1018000043D890238A89DB001A423ED00325096918
:10181000236801985B1A029363695D43EB0F5D19BE
:10182000029B6D1001331B18AB4200D91D005305FC
:1018300010D52900380000F037FB061E14D0029A9C
:101840002169FFF79FFFA289194B134080221343A0
:10185000A38112E02A00380000F086FB061E0CD19E
:101860002169380000F0D4FA0C23402201203B60AB
:10187000A38940421343A38117E0029B2661F61817
:1018800026606561019EED1AA560019BB34200D2FE
:101890001E0032000399206800F0A5FA0020A3681A
:1018A0009B1BA36023689E19266005B0F0BDC0464F
:1018B0007FFBFFFFF0B59FB0029005938B890F006F
:1018C00016001B0610D50B69002B0DD1402100F02E
:1018D000EBFA38603861002804D10C23029A0138F1
:1018E0001360D8E040237B61002306AD6B61203399
:1018F0006B761033AB7634002378002B03D1A31B17
:10190000049312D003E0252BF9D00134F4E7A31B94
:10191000320039000298FFF76BFF431C00D1B4E09E
:101920006A69049B944663446B612378002B00D161
:10193000ABE00122002352426A6002A954325218DD
:1019400001342B60EB60AB601370AB65534E2178B4
:101950000522300000F03CFA002807D00123801B4C
:1019600083402A68013413432B60EFE72B68DA06C3
:1019700004D55322202102A8121811701A0704D589
:1019800053222B2102A81218117022782A2A03D080
:10199000099B00200A210EE0059A111D126805918D
:1019A000002A01DB099204E05242EA60022213435A
:1019B0002B6001340BE02278303A092A04D84B43DB
:1019C00001349B180120F6E7002800D00993237802
:1019D0002E2B1ED163782A2B0AD1059B02341A1DA7
:1019E0001B680592002B01DA01235B42079310E08C
:1019F00000230A201A0001346B602178303909294C
:101A000004D84243013452180123F6E7002B00D0DA
:101A10000792234E21780322300000F0D9F90028E4
:101A200006D04023801B83402A68013413432B6077
:101A3000217806221B48661C297600F0C9F9002887
:101A400012D0194B002B06D10722059B0733934375
:101A50000833059314E005AB00933A00134B2900BB
:101A6000029800E000BF07E005AB00933A000F4B7F
:101A70002900029800F08AF80390039B013304D0F8
:101A80006B69039A9B186B6135E7BB890B985B0602
:101A900001D5012040421FB0F0BDC046C320000068
:101AA000C9200000CD20000000000000F117000058
:101AB000F7B5170001938A680B6900900C009342F8
:101AC00000DA130022003B6043321278002A01D072
:101AD00001333B6023689B0602D53B6802333B60C1
:101AE000062523681D401ED0230043331B785A1E51
:101AF0009341226892061CD53020E11843310870CA
:101B000021005A1C45310978A21843320233117062
:101B10000FE022000123193201990098089EB04776
:101B2000431C0ED00135E3683A689B1A9D42F0DBF6
:101B3000DAE72200019943320098089DA847431C28
:101B400002D10120404220E006232068E1683A6883
:101B500003400025042B03D18D1AEB43DB171D40F6
:101B6000A3682269934201DD9B1AED180027BD424C
:101B70000AD0220001231A3201990098089EB0472A
:101B8000431CDED00137F2E70020FEBDF0B58BB07C
:101B900006920A0043320793059004920A7E0C00D5
:101BA000109B6E2A00D1ABE011D8632A22D009D84D
:101BB000002A00D1B5E0582A00D0C5E045310A70AE
:101BC000814A4FE0642A1DD0692A1BD0BCE0732AE9
:101BD00000D1AAE009D86F2A29D0702A00D0B3E03A
:101BE000202209680A43226037E0752A1FD0782A2C
:101BF00033D0A9E00E001A684236111D196013682F
:101C00003370A4E021681A68080606D4490604D592
:101C1000111D19600023D55E02E0111D19601568C1
:101C2000002D3BDA2D23049A6D42137036E02168B3
:101C30001A68080606D4490604D51568111D1960EE
:101C4000ADB202E0111D196015685F4B227E03934F
:101C500008276F2A1DD00A271BE022007821453271
:101C600011705A4A19680392081D226818600D689D
:101C7000100602D4500600D5ADB2D30702D52023FA
:101C80001A4322601027002D03D1202322689A4393
:101C900022602300002243331A7002E00A274A4BD5
:101CA00003936368A360002B09DB0422216891433E
:101CB0002160002D05D1049E002B11D07BE0002D6A
:101CC00079D0049E28003900FFF72AFD039B013ECE
:101CD0005B5C280033703900FFF79CFC051EF1D1D6
:101CE000082F09D12368DB0706D563682269934270
:101CF00002DC3023013E3370049B9B1B23612BE0ED
:101D000009681A68080607D4490605D5111D196027
:101D10001368A28A1A8004E0111D196013686269B1
:101D20001A600023049E236116E01A68111D1960D1
:101D3000166800216268300000F04AF8002801D0DF
:101D4000801B6060636803E0260042363270012326
:101D500023610023049A1370079B09AA00932100B2
:101D6000069B0598FFF7A4FE431C02D101204042C8
:101D700027E02369320006990598079DA847431C70
:101D8000F4D0236800259B070FD4099BE068984294
:101D900017DA180015E02200012319320699059878
:101DA000079EB047431CE1D00135E368099A9B1AAE
:101DB0009D42F0DBE9E72600039B42361B78337037
:101DC0008EE70BB0F0BDC046D4200000E520000037
:101DD000C9B28218904204D003788B4202D00130FD
:101DE000F8E70020704710B5884202D98B18984256
:101DF00001D3002305E09B1A013A08D3995C815472
:101E0000FAE7934203D0CC5CC4540133F9E710BD28
:101E100070B50500002944D00C1F2368002B00DAA0
:101E2000E418280000F0D8F81E4A13681100002BAF
:101E300002D16360146031E0A3420DD92268A0187A
:101E4000834203D118685B688218226063600C606B
:101E500024E0A24203D813005A68002AF9D11E6870
:101E60009819A0420BD12168711858181960824244
:101E700014D110685268411819605A600EE0A042EF
:101E800002D90C232B6009E021686018824203D13B
:101E9000106852684118216062605C60280000F0A0
:101EA0009CF870BDA8010020032370B5CD1C9D4394
:101EB000083506000C2D01D20C2501E0002D01DBB8
:101EC000A94202D90C23336048E0300000F084F8C6
:101ED000234B1C681A002100002913D00B685B1BE0
:101EE0000DD40B2B02D90B60CC181EE08C4202D112
:101EF000636813601AE04B6863600C0016E00C0026
:101F00004968E9E7174C2368002B03D1300000F043
:101F100051F820602900300000F04CF8431C18D024
:101F20000323C41C9C43A0420DD12560300000F067
:101F300054F8200007220B30231D9043C31A0ED003
:101F40005A42E2500BE0211A300000F033F8431CF3
:101F5000EBD10C233000336000F03FF8002070BD5F
:101F6000A8010020A4010020F8B506000C0015000F
:101F7000002904D11100FFF797FF040018E0002AA0
:101F800003D1FFF745FF2C0012E000F027F885424F
:101F90000ED929003000FFF787FF071E07D0210068
:101FA0002A00FFF7EFFB21003000FFF731FF3C0074
:101FB0002000F8BD002370B5064C05000800236022
:101FC000FEF7A4FA431C03D12368002B00D02B603A
:101FD00070BDC04610020020704770470B1F1A6882
:101FE000101F002A04DA891804390B68D018043845
:101FF00070470000002200002A00000000000000DE
:10200000F7FF7018B2C0300154144A1378184B10FF
:102010003C57F905F00038200020D80E2B053B6115
:102020000023E023FDC2F7FF7018B2C03001541541
:102030004A1D78184B1AF917F0000020D80C2D090A
:10204000626F6F746C6F6164657220737461727417
:102050000D0A0054686520626F6172642069732004
:102060006E6F74206163746976617465642C20708E
:102070006C6561736520616374697661746520695C
:102080007420776974682074686520616374697668
:10209000652E63796163640D0A000000B5116A253D
:1020A000003C0101D91F5DC38D2AEEDBC9B9AA9B93
:1020B0008E82766B60564D443B332C241D17100ADC
:1020C000044300232D302B2000686C4C00656667AC
:1020D000454647003031323334353637383941429E
:1020E0004344454600303132333435363738396170
:1020F0006263646566000000F8B5C046F8BC08BCC1
:102100009E4670472901000089050000F8B5C046C9
:10211000F8BC08BC9E467047010100003021000059
:10212000B800002090000000D00000000000000077
:102130000000000018020020F41F0000F81F00003B
:10214000010000000000E02EC05D0000180000004B
:1021500000366E01040404000000000000000000CE
:10216000000000000000000000000000000000006F
:102170000000000000000000C1200000000000007E
:10218000000000000000000000000000000000004F
:10219000000000000000000000000000000000003F
:1021A000000000000000000000000000000000002F
:1021B0000000000000000000E0000020000000001F
:1021C000000000000000000000000000000000000F
:1021D00000000000000000000000000000000000FF
:1021E00000000000000000000000000000000000EF
:1021F00000000000000000000000000000000000DF
:1022000000400020112200003D7300003D730000DB
:1022100080B5044B00AF83F3088805F061F905F041
:10222000ADF8C0460040002070B572B60024414BA6
:10223000414A1C60414BC7211A60414B414A1C6016
:10224000414B49001C60414B20251C600523136055
:102250003F4A11603F4A136012223F4B1A6005F05B
:102260002DF9302005F018FCE8223C4B52011A6091
:102270003B493C4B3C481960C021890001603B4808
:1022800018603B4801603B493B4819603B490A6084
:102290003B491960F821490101603A4818603A4801
:1022A00004603A4818603A4802603A4A0D201A60C1
:1022B000394A1160394A3A491A604522394B1D6042
:1022C000394B1A60394B033A1A60394B013A1A609C
:1022D000384B06321A60384B013A1A60374B033AD2
:1022E0001A60374B01321A60364B043A1A6005F017
:1022F00019FB0D2005F042FB8020334BC0051C600C
:1023000005F0F6F80322314B01201A608022304B91
:1023100012061A6008222F4B1A602F4B1D6002F024
:102320007BF862B605F05CFC2C49042005F080FCCB
:1023300070BDC04600030240FF0F000000040240D1
:102340000803044000040440180304400003044050
:1023500008040440180404403000104014030140F5
:1023600045FF0080000001400803014042FF00805B
:102370000403014041FF0080100301400C030140B1
:1023800043FF008044FF00800003014040FF0080C5
:102390001803014046FF00801C03014047FF0080F6
:1023A000E977000028000340480101403001014066
:1023B0002C010140100101400C01014008010140C5
:1023C00004010140000101400C0222403000304075
:1023D00000003A4000033A40000E3F40094400002C
:1023E00010B5064C2378002B07D1054B002B02D0EB
:1023F000044800E000BF0123237010BD4801002005
:1024000000000000C8BF0000044B10B5002B03D033
:102410000349044800E000BF10BDC04600000000B2
:102420004C010020C8BF00007047000010B5124CDE
:1024300090B0200002F058F8237F02AA13710F4BCE
:1024400010000293236A06A90493636A059302F0BD
:1024500085F823002C331B7802AA1371084B100057
:102460000293236B06A90493636B0193059302F017
:10247000C1F810B010BDC04664010020B0C100001A
:10248000CCC1000010B5194B92B01A7F05A802719B
:10249000174A09A905921A6A5B6A8260C36001F053
:1024A000CCFF0E9B191C181C039307F025F9114C47
:1024B000002806D02000104904F028F90F4812B077
:1024C00010BD0F49200004F006F90E9808F0C4FF73
:1024D0000B00022102000091200004F02FFA2000DE
:1024E000084904F013F90E98E9E7C046640100209A
:1024F000B0C1000000070020D8BF00000000C8C223
:10250000F3BF000001C000001A4B10B51A002C32B6
:1025100092B0127805A80271174A09A905921A6BA0
:102520005B6B8260C36001F0A1FF0E9B191C181C3D
:10253000039307F0E1F8114C002806D02000104961
:1025400004F0E4F80F4812B010BD0F49200004F069
:10255000C2F80E9808F080FF0B00022102000091E3
:10256000200004F0EBF92000084904F0CFF80E98A1
:10257000E9E7C04664010020CCC10000000700204C
:1025800005C000000000C8C21DC0000028C0000037
:10259000012313B5074C5B42019300930B220733D1
:1025A0003121200001F088FF2000034A034905F093
:1025B00071FE13BD64010020B80000202924000032
:1025C000054B10B5DB6A98470449054804F0B2F89A
:1025D0000122044B1A7010BD20C300002AC0000065
:1025E00000070020BC00002010B50649064804F092
:1025F000A1F803F069FB0022044B1A70044B01326E
:102600001A7010BD3BC0000000070020BC01002074
:10261000BC00002007B5C90041180822684609F02F
:1026200061F80098019903B000BD10B50C1E0AD0E6
:102630007F220B7A93431A000C2313430B7208F08A
:102640000BFF2060616010BD0A21435E0200181E6E
:1026500001D01B01D0187047F8B50D1E1BD00468BF
:10266000002C18D0280009F02DF9E6680700301E6C
:1026700001D009F027F9B84208D10023BB420BD0A2
:10268000E95CF25C914201D10133F7E72000FFF7EA
:10269000DBFF0400E4E700242000F8BD02004868E6
:1026A0008B681030834203D2012300200B747047E3
:1026B000103B18008B605368002B08D0C11A091119
:1026C00059810023506043810372C360EFE71060BB
:1026D000F7E70000F0B5037805000F0089B02B2B59
:1026E00031D0002203922D2B02D101352C3B0393D4
:1026F0002B781A00303A092A04D9002200922E2B96
:1027000000D0AEE0002000217F4E2B781C00303C32
:10271000E4B2092C1AD8B14224D802D17B4B98429A
:1027200020D800230A2206F0D1FA0023049405934E
:10273000E3434A1C01D1984214D8049B059C0135FF
:10274000C0186141E1E700230135D0E7002B09D132
:10275000039B002B25D080231B06994202D811D160
:1027600000280FD0802600247603B14224D2641BB7
:102770002B191BB204932B781A00303A092A22D85D
:102780000135F5E77F223B7A93431A000A2313436E
:102790003B72002342428B413A607B60039B009373
:1027A0005FE07F223B7A3860796093431A00082308
:1027B00013433B720123F2E70A220023013406F09F
:1027C00065FA24B2D1E72E2B1DD1514E01352C785C
:1027D000303CE4B2092C16D8B14212D802D14D4B8C
:1027E00098420ED800230A2206F070FA00230694BD
:1027F0000793069B079CC0186141049C013C23B2CF
:1028000004930135E3E720222B7800249343452BE2
:1028100045D16B782D2B27D12C3B023500939A2381
:102820005B0000240A229C462B78303BDEB2092E46
:1028300031D854431C19049B1B19634529DD0099A9
:102840007F223B7A002916D0039900240025002915
:1028500001D080252D0693430C223C607D601343FC
:102860003B72009809B0F0BD2B2B02D001350094CB
:10287000D5E70235FBE703990020002907D1264957
:1028800093430C221343386079603B7292E72349EB
:10289000F6E70135C8E7009B002B00D06442002317
:1028A0002D7800939D42DCD1049B1C1906F054FA4C
:1028B0001B4E002C00DC1B4EE317E4185C40002C80
:1028C00010D001231C4209D0EB00F31800900191B5
:1028D0001A685B680098019907F016FF01356410CB
:1028E000EDB2ECE7039B002B02D080231B06C91836
:1028F0007F223B7A93431A000C2313433B7202005E
:102900000B003A607B6055E79999991999999999C3
:1029100099990100989999990000F07F0000F0FFC3
:1029200040C10000F8C000000022F0B500241C4B9C
:102930001C481A601C4B1D4E1C801D4B8BB0036045
:102940001C4B012543601C4B836033689847F36838
:102950001A4898471A4B2200089308230293013B18
:102960002800F76900930E2123000794069405942C
:10297000049503940195B847082307220193210089
:102980002B002800B66909950894079406940595CC
:102990000494039402940094B0470BB0F0BDC04679
:1029A000C0030020A00100209C01002020C30000E3
:1029B000E9250000C125000091360000C0CA893613
:1029C000B80B0000054B07B51A78002A05D0002087
:1029D0001870034B5B6B0193984707BDBC00002048
:1029E00020C30000F8B503680C005A1CD27F920681
:1029F00001D4002347E0183341681800FFF72CFE8C
:102A00002368021EF5D07F21007A08400638062888
:102A1000EFD805F05FFF3DEE2EEE1FEE040018002C
:102A20001668576808F0C2FC0B00020004000D0095
:102A30003000390006F002F90423002823D12B00CE
:102A400022003000390006F00DF90300581E8341C2
:102A5000013318E003CADA178A4222DC01D183422B
:102A60001FD891420EDC914201D198420AD801232D
:102A700009E003CADA178A4213D801D1834210D879
:102A80009142F0D90223013B58425841C0B2F8BDEF
:102A90001078002B05DB834203D883429B415B42C5
:102AA000D6E70423EFE7437C002B06D1C3685A1C0A
:102AB000C2601B78037401234374007C70470000DC
:102AC00070B5040001252000FFF7EDFF031E0BD0B9
:102AD000093BDBB2172B0CD82A009A40074B1A424D
:102AE00007D000236374EEE7207A431E984101303B
:102AF00070BD012300202372FAE7C0461300800056
:102B000070B505000C00207800280CD02800FFF7D5
:102B1000CAFF002806D02378834205D10023013460
:102B20006B74F0E7022070BD0320FCE730B5446809
:102B30008A1843680568AB4207D2914205D05D1CF4
:102B400045600D7801311D70F3E782681B1BD318B7
:102B5000836030BD70B5050008000C0008F0B2FEBF
:102B6000210002002800FFF7E1FF70BDF0B5162636
:102B70000700140089B01D0002ABF61820002900E0
:102B80000A22002306F082F8013E303200232000A2
:102B9000290032700A220094019506F077F8019B13
:102BA00004000D00002BE9D1009B092BE6D8162369
:102BB00002AA9B18310038009A1BFFF7B7FF09B033
:102BC000F0BD10B5426804680023A24203D2531C32
:102BD0004360012311708268D318836010BD70B503
:102BE00004000D00FFF75FFF0023A84201D16374CA
:102BF0000133180070BD000070B504000B4B9D78C8
:102C0000002D0CD0DA7802338A42F8D15C21200002
:102C1000FFF7D7FF29002000FFF7D3FF05E00029C9
:102C2000F9D120000249FFF795FF70BD49C00000AF
:102C30005AC00000F0B50400037A7F200E008DB06A
:102C400018400C2812D87E22134215D002380A28C8
:102C500012D805F05DFE07020702F501F5011F021B
:102C600011001C021100090211001300202800D1DC
:102C7000BAE1402800D186E1D14910E2A0CC2A0077
:102C80003B002800390005F0D3FF0028F4D00022D3
:102C900000232800390005F0CBFF00280DD12A00C1
:102CA0003B002800390006F0BFFD02000B002800A1
:102CB000390005F0BDFF0028DED1002200232800E6
:102CC000390005F0BBFF002806D02D213000FFF7AA
:102CD00078FF80231B06FF18002228003900B94B1B
:102CE00005F0CAFF002863D00023082401930133B4
:102CF000FF3302932100B448FFF78CFC2A003B000D
:102D000005F0A6FF002811D02100B048FFF782FC93
:102D100002000B002800390007F0F6FC029A0500BB
:102D200094460F00019B63441BB20193029B5B100E
:102D30000293013CDED204940022002328003900D3
:102D400005F090FF00283AD028003900A04AA14B96
:102D500005F07EFF002832D000230393039A049BE2
:102D60009C1A23062BD421009848FFF753FC00221D
:102D7000994B07F0C9FC2A003B0005F073FF0028BF
:102D800010D021009048FFF745FC02000B002800FE
:102D9000390007F0B9FC0F00019B029A0500981A50
:102DA00003B20193029B5B100293039B0133D4E7B0
:102DB00080235B000293F83B04930190BCE728005A
:102DC000390005F0ABFF092304000593834B029003
:102DD00004936B461B7D5BB20393059B013BDBB207
:102DE0000593092C0AD90A21049805F09BFD0A21B4
:102DF0000490200005F096FD0400EAE7029808F030
:102E000005FB02000B002800390007F0E9FE040072
:102E100004980D0008F0FAFA02000B0020002900C7
:102E200007F072FC04000D0005F078FF070008F0C1
:102E3000EDFA02000B002000290007F0D1FE0B0084
:102E4000020006F0F1FC05F069FF049BC419A342DF
:102E50000FD80024029B01330293019BA34208D0A8
:102E6000029B092B05D90198013003B2019301237C
:102E700002930A255A4F01225A4B6343D341BB4266
:102E80000CD8039B002B09DD2900200005F04AFD2A
:102E90000399040001394BB20393ECE716250A2786
:102EA00006ABED180298390005F0C2FD029B3031E7
:102EB000013D180029703900049305F033FD049B8F
:102EC0000290092BEED8162306AA9B185A1B29003C
:102ED0003000FFF72BFE039B002B24D00A27029320
:102EE0000AAD029B013D013B5BB2029301330BD063
:102EF0002000390005F09CFD303120002970390098
:102F000005F010FD0400ECE76B46197B1024CB4361
:102F10002E2206A81B19C2544A1CC9430AAB300012
:102F20005918FFF703FE019B002B45D065213000A7
:102F3000FFF747FE6B469C88019B002B05DA2D218D
:102F40003000FFF73EFE6442A4B2162306AA9B1887
:102F50001D000A272000390005F06AFD013D3031CF
:102F6000200029703900019405F0DCFC019B84B23B
:102F7000092BEFD81623290006AA9B185A1B3000EC
:102F8000FFF7D4FD18E05B213000FFF71AFE24683C
:102F9000002C0DD031002000FFF74CFE2000FFF781
:102FA00053FB041E04D02C213000FFF70AFEEFE78C
:102FB0005D213000FFF705FEB0680DB0F0BDC046E2
:102FC00061C00000D012634140C10000F8C00000A1
:102FD000F168E388B5F8E43E0000244000CA9A3B5B
:102FE00099999919CDCCCCCC7B213000FFF7E9FD24
:102FF0002468002C22D022213000E568FFF7E1FD93
:103000002978002904D030000135FFF7F5FDF7E7F6
:1030100022213000FFF7D5FD3A213000FFF7D1FD26
:1030200031002000FFF706FE2000FFF70DFB041E15
:1030300004D02C213000FFF7C4FDDAE77D21B8E78A
:103040002768222130006568FFF7BBFD3C007D1931
:10305000A54205D021783000FFF7CEFD0134F7E717
:103060002221A6E706CC8AE765682468002D08DAE5
:103070002D213000FFF7A5FD22002B000025544232
:103080009D4122002B003000FFF770FD94E722687D
:103090006368F8E723780449002B00D10349300026
:1030A000FFF758FD88E7C04666C000006BC000000F
:1030B00073B5C3B27F2804D80A68501C0860137027
:1030C00073BD00226C4622703F246D462340803A37
:1030D000134380096B7085B2C3B21F2D0ED84032E6
:1030E00013436A4693706B460333013B18780028FC
:1030F000E6D00A68541C0C601070F6E76D46FC269A
:10310000234013438011AB7083059B0DB600DDB2E5
:10311000304206D120226B4652421543DD7001AB8E
:10312000E3E768462C402243C27010229B115242B2
:10313000134303716B460533D7E70000F7B505006D
:103140000026FFF7B0FC6E7401902800FFF7ABFC7F
:103150000024019A03006C74824256D0A04201D12F
:103160000220FEBD5C284BD12800FFF79CFC002804
:10317000F6D0274B752839D104276C742800FFF747
:1031800092FC0028ECD0402805D83038C0B20F2877
:1031900005D90320E5E7202398433738F6E70023D5
:1031A0002401013F0443FFB2A4B26B749F42E5D1F6
:1031B000A02380229B01E3189BB2D200934202D24B
:1031C000A405A60DC1E790239B01E3189BB2200044
:1031D000934206D280238005B402800D20435B0217
:1031E000C0182900FFF764FFAFE702331A78002AFE
:1031F000CFD09042F9D15B78002BCAD000226A74FC
:103200002A68511C296013709FE72000A9E7C04677
:1032100049C0000070B5037A0D00160019007F2226
:1032200004001140134205D193435F3A13430372E4
:1032300001604160227A2023100018401A4212D007
:10324000281E10D029002000FFF706FA00280AD116
:1032500031002000FFF722FA002804D07F22037AF1
:10326000C5601340037270BD70B53F4D3F4C2B7865
:10327000A544002B61D006AC10AB1122069363600D
:1032800042ABA360E360002302A95218D377384908
:10329000220023740CA8FFF7BDFF00280AD07F226C
:1032A000037A93431A000A23134303720422002370
:1032B000026043602F4B1B78002B42D12E4B220023
:1032C0002E490CA81E68FFF7A5FF0100301CFFF770
:1032D000ACF922002A4B2B491E680CA8FFF79AFF75
:1032E0000100301CFFF7A1F90024C2AB039303A92E
:1032F00042AB0CA804930594FFF79CFC80239B0031
:10330000984204D2C2AB18181F4BC018047042A9CF
:1033100003A803F0B0FB03A91C4803F001FA03A8BB
:1033200003F04EFB42A808F0CDFA194BC1B29B6ADC
:1033300042A80193984700232B70C2239B009D4411
:1033400070BD012BD0D1134B220013490CA81E686D
:10335000FFF760FF0100301CFFF767F90F4B2200F9
:103360001E680F49B9E7C046BC000020F8FCFFFF0B
:1033700071C00000C0000020FC03002074C00000E9
:10338000F803002083C0000000FEFFFF00070020BC
:1033900020C30000040400208FC0000000040020AF
:1033A0009FC00000030000202F2B0FD90130392BC4
:1033B0000CD95E2B07D97A2B08D900205A229A42C1
:1033C0004041C0B202E00020402BF6D87047F7B56C
:1033D000DBB204000F0005250193002B1DD0002354
:1033E0004374FFF76DFB051E17D17D212000FFF709
:1033F000F6FB002811D1236820006360FFF753FB20
:1034000027280CD022280AD02000FFF74CFB06000A
:10341000FFF7C8FF002809D103252800FEBD2000C2
:10342000FFF78CFE00280FD00500F6E70023637439
:10343000236820005A1C22601E70FFF734FB060030
:10344000FFF7B0FF0028F1D12000FFF739FB061E7F
:103450003FD13A212000FFF7C2FB0028DCD02368CF
:1034600038001E706168FFF7F7F8011E11D123685C
:103470001870236838000133616923606668FFF7BC
:103480000DF9002827D07F220100037AC66013407F
:103490000372019B00222000013B00F01FF800286E
:1034A000C2D12000FFF70CFB0028BDD17D212000F8
:1034B000FFF795FB0028B0D12C212000FFF78FFBF0
:1034C0000028A9D02000FFF7FBFA002800D192E7DE
:1034D000AAE70500A1E704259FE70000F7B505006E
:1034E0000E001F1CFFF7ECFA041E00D087E0280036
:1034F000FFF7D9FA662800D1A4E01DD8272803D009
:103500005B2843D0222820D12B6828006B60FFF76E
:1035100015FE041E73D17F212B6818702B68686814
:103520005A1C2A60327A1B1A8A43110004220A4369
:1035300032723060736062E0742800D174E07B28DE
:1035400061D050496E2800D178E02800FFF7ABFA2F
:103550002B002F00403301937B1BDBB22F2800D8B8
:103560007AE0392806D9020020218A43D2B2452ABE
:1035700000D07AE0019B0137BB4200D180E00023FC
:103580006B74F8752800FFF78EFAE5E77F22337A2F
:10359000FFB293431A0040231343337234607460C4
:1035A000002F2BD06C742800FFF78AFA041E26D156
:1035B0005D212800FFF713FB002820D16969300046
:1035C000FFF76CF8011E1CD0002228007B1EFFF7BD
:1035D00085FF002826D12800FFF772FA002821D1A4
:1035E0005D212800FFF7FBFA002808D12C212800D4
:1035F000FFF7F5FA0028E1D1032400E005242000BC
:10360000FEBD0424FBE77F22337A310093431A0086
:1036100020231343337200222800346074603B1C63
:10362000FFF7D5FE0400EAE77F22337A1649934379
:103630001A00062313433372012333702800FFF767
:103640005FFAEFE77F22337A104993431A0006238B
:10365000134333723470F1E72B2800D18AE702005C
:103660002D3AD2B2012A00D884E700222800EB18B4
:1036700031001A761830FFF72DF80028BFD1BBE7CC
:103680003F23F2E761C0000066C000006BC000008D
:10369000F0B54D4D4D4F4E4EABB00C003A803180E1
:1036A0000A000100280008F01DF8A0200021C00138
:1036B000295502F0E3FA474BDB6A0393984700224F
:1036C000BB5E0021725E4448444900922A0002F029
:1036D000D5FF8020800007F0F1FF031E02D0802379
:1036E0009B00C318002650220C930D9312AB1E7042
:1036F00008AB1E7602AB9B181495159609321E7006
:1037000002AB9B1817950A901E700B900A230AAC07
:1037100010A9002214A81994FFF7E0FE0423304DED
:1037200004A906A8069407950493FFF75BF9B04235
:1037300018D02C4B05A914A8149415930596FFF7DF
:1037400051F9B0420ED000F061F80122264B1A70F8
:103750000122264B0A981A70002801D007F0B8FF02
:103760002BB0F0BD042304A906A806940795049382
:10377000FFF738F9002817D1042304A906A80694F6
:1037800007950493FFF72EF90028E1D01494012443
:10379000174B05A914A815930594FFF723F90028E2
:1037A000D6D0114B1C70D3E701260E4B05A914A8E7
:1037B000149415930596FFF715F90028DCD000F056
:1037C0001FF8094B1E70C3E7C00100209C010020B8
:1037D000BE01002020C3000000070020ACC0000094
:1037E00071C00000DEC00000BC010020BC00002051
:1037F000E9C0000010B50621342000F067FA10BDC2
:1038000010B50121342000F06FFA10BD10B5002171
:10381000342000F069FA10BD10B5132000F032FB1F
:1038200005F080FFE621890505F084FC014905F0DB
:1038300081FC10BD0000C84210B5024801F00BFC2D
:1038400010BDC046D803002013B5054C68462100C2
:1038500001F030FB0021200001F04EFC16BDC046F7
:10386000D803002010B5054C3221200001F09CF94E
:103870002100034801F056FA10BDC046C4030020E1
:10388000D80300201FB50F4A01230292962100227F
:103890005B420093019289010B4A0C4802F018FB2D
:1038A000FFF742F80A4B1B68012B05D1FFF7A2FF77
:1038B000FFF7C2FF05B000BD002BFBD1FEF7B6FD40
:1038C000F8E7C046204E0000220800000007002054
:1038D000C000002070B505000C00FFF7B5FF2860A0
:1038E000FFF79AFF206070BD70B505000C00FEF771
:1038F000C9FD2860FEF708FE206070BD0C4B10B5B6
:103900001B78002B0AD1FFF75DF80A4B1B68012BCF
:1039100007D109490948FFF7DDFF10BDFFF7A4FCF7
:10392000F3E7002BF9D106490648FFF7DDFFF4E77E
:10393000BC010020C000002000040020040400207E
:10394000F8030020FC030020C308194A1B02F0B54D
:103950009D18184A03269C18174A9B1807221040E6
:10396000063A8240082903D0092902D1310000E03B
:1039700002217043072686402F68B7430E00864019
:10398000380030432860D043022903D119680A4324
:103990001A6008E01D6805401D60002903D12368F6
:1039A0001A43226002E0236818402060F0BDC04640
:1039B000080004401800044000000440F8B5072146
:1039C00000240120194B1A4E1A681A4B1A601A4B20
:1039D0001A78944228DA335D184FDD082D02ED196C
:1039E0002F680B40BC4607009F4063461F4218D01B
:1039F00001212120FFF7A8FF114B1B78002B03D0DA
:103A000002211920FFF7A0FF335D0E4A9B009B584F
:103A100098472B681F432F6000F08EFA0A4B1860FE
:103A200002E0013464B2D4E7F8BDC04618E000E01B
:103A3000090500200405002048050020100004406E
:103A400080050020080400208405002007B5684692
:103A500004F0F6F80098019B010B000589B21843A9
:103A600003B000BDF0B58FB0FFF7F0FF0E040025E6
:103A700034002B0000196941320C801A99410090E2
:103A80000191019B754E1C042200009BB4461B0C47
:103A90001A431000724A734F821813093340724E52
:103AA000120132401343714A714E9B189A083240FA
:103AB000704E9B00334013436F4A704E9B185A0858
:103AC0005B0032403B4013436D4A6E4C9B186E4A7C
:103AD0001E0A1B02234016401E432B006546069516
:103AE000614D66490795624D0891AC46614D099755
:103AF00066495F183F780AA95F540133102BF7D14C
:103B00000B990A9B09BA03910C991BBA09BA049143
:103B10000D9909BA0591002102919E4200D099E0C9
:103B2000F02600995A4B0F0136033E405949034095
:103B300033435B181F021B0A1A403C40564B144388
:103B4000E418E24363469200A40815401C40534B1E
:103B50002C43E218079B14011C40D34306991B0910
:103B60000B404F4923435B183E495F008C4609993F
:103B70005B080F4008993E4E0B401F43039B3A4D94
:103B8000364A3E4C9F4265D1009B00991F04F023AA
:103B90001B051F40434B03401F43F0230B4042498A
:103BA0003B435B181F02DB4336491B0A0F40364973
:103BB0000B401F433D4B2F49FF18FB433F091B019F
:103BC0002B4017401F433A4BFF18FF43BB08BF0071
:103BD0000F40334037493B435B1861465F000F405D
:103BE0005B08049923403B438B4233D103003249A5
:103BF0000B401900009B1802F0231B0118400143E1
:103C00004F00C943634649081F4021402B4B0F43D7
:103C1000FF18FB433F091B011D403A40284B2A4334
:103C2000D218184913021940D343174A1B0A1340EC
:103C3000244A0B439B18DB430E4A98089B00134011
:103C400030401843204BC018059BC01A43425841CE
:103C500043B202936B46187A0FB0F0BD0F0F0F0FEF
:103C600059C9947FAAAAAAAAF0F0F0F04E384E0AD9
:103C700033333333CCCCCCCCDC842357555555551A
:103C8000247BDCA800FF00FFFF00FF00F0F7FF0F20
:103C9000FFFFF0FF41BD4B3946F6AC3FDAE94D413D
:103CA0004299797E0FFFFFF02DB1F6B2B2C3ED1B42
:103CB000731F94F5DBAEE973FFF0FFFF38E47C235C
:103CC00039DEC7D99A0FEC4100C1C62870B504008F
:103CD0000D00FFF7C7FE002800D1FEE729002000F5
:103CE000FFF732FE70BD000070B504000D003228F1
:103CF00002D0342809D014E0124B1A78002A10D0D0
:103D000000221A7002F078FC07E00F4B1A78002AA4
:103D100007D000221A7002F089FC06212000FFF76C
:103D2000D5FFE308094A1B029B1807221440063AF4
:103D3000A2401968002D01D00A4301E091430A0016
:103D40001A6070BD490500200805002000000440ED
:103D50000723064A0340C0080002801802680120B9
:103D600098401040D840C0B27047C046040004409C
:103D7000C308054A1B029B1807221040063A8240DE
:103D800019680A431A60704710000440F8B505002E
:103D90000F001400FFF766FE002800D1FEE707269B
:103DA0002800FFF7E5FF03212E407600B140B44024
:103DB000114AEB081B029B181A68A4B28A4300211F
:103DC00014430E4A1C60AB009F500D4B0D481A78EF
:103DD000CCB2A24205D94C1C415CA94204D02100BE
:103DE000F6E7855401321A701B78012B02D1064880
:103DF00002F088FEF8BDC0460C0004400804002014
:103E00004805002009050020BD390000F7B5002253
:103E1000184D0400184F28780195D3B283421FD261
:103E2000511CBA5CA24201D00A00F6E71349E2082D
:103E30001202521807210325214049008D401668BF
:103E4000AE431660FA185278FA540133DBB2984246
:103E5000F8D80021019B0138094A1870A300995035
:103E6000019B1B78002B01D102F05EFE2000FFF7C2
:103E70007FFFF7BD48050020090500200C00044025
:103E8000080400200723F7B50124144E03403768C7
:103E900000219C400225FFF719FFA74203D0104BD9
:103EA00004351F603460002402F05CFB02F070FBFC
:103EB000012002F075FB002807D102F087FB802368
:103EC0001B01C01803B20193F2E7013402F066FB54
:103ED00002F056FBA542E7D10198FEBD00033A402F
:103EE00004033A4010B503F05FFD10BD10B503F0B8
:103EF0002FFE10BD10B500F01FF810BD70B50220E8
:103F000003F002FC03000021054A064C1568581B0B
:103F1000256866684019714113602060616070BD5A
:103F200068050020600500200023C1600360436035
:103F30000372036170470000F8B503F072FA0500E0
:103F4000022003F0E1FB030000210D4A0D4C16682E
:103F50001360981B2668676880197941206061604A
:103F6000280003F062FA20686168FA2200239200B8
:103F700004F0ACFE4B04C00B1843C90BF8BDC0469F
:103F8000680500206005002010B5FFF7D5FF034B42
:103F90001A685B68801A994110BDC0465805002018
:103FA000012370B5037205000468FFF7EDFF0322DB
:103FB000002380185941002901D1A04203D9FFF7FD
:103FC000E3FF033028602C68044800F011F920005A
:103FD000032C00D2032000F013F970BD354100001E
:103FE000054B10B51A68002A01D000211172026138
:103FF0001860FFF7D5FF10BD6C05002070B50A4CA6
:104000002568FFF799FF03C40021084B401B1B687C
:10401000002B08D01A68904202D2121A1A6000E0EF
:1040200019601B69F4E770BD580500206C0500207D
:10403000F8B5040003F06EF90500002C15D01D4FF3
:104040003A681300002B03D09C420ED01B69F9E79D
:10405000616823722160002A0BD1FFF76DFF164BB8
:10406000186059602000FFF7BBFF280003F056F9E5
:10407000F8BDFFF789FF23680600C2183B6822607D
:1040800019688A4205D2FFF7B9FF23689E1B266094
:10409000E8E719691869002808D00868824202D93F
:1040A0000B000969F6E71C612161DEE71C612061F4
:1040B000DBE7C0466C05002058050020F8B5040079
:1040C00003F028F9144D06002B68002B20D0002C9B
:1040D0001ED0A34213D1237A2769002B0CD0002FC6
:1040E00008D0002323722F60FFF788FF2868FFF7AE
:1040F00057FF0BE000F01CF92F6007E013001A696E
:10410000002A03D09442F9D122691A610023237254
:10411000300003F003F9F8BD6C05002070B50C0009
:104120000500FFF7CBFF022C00D803242C606C6045
:1041300070BD000070B5FFF761FF134C23682500C8
:10414000002B03D12868002817D11BE01E68FFF759
:104150001BFF00290AD025682B692360EB68002B20
:1041600000D1FEE7984700232B72E4E7B042F2D873
:1041700023681B68002BEED0E4E7037A002B01D103
:10418000FFF70EFF70BDC0466C05002010B5FFF7AD
:10419000D3FE034B1A685B688018594110BDC046B6
:1041A0005005002070B50D000400FFF7EFFF001B65
:1041B000A94170BD10B580246402200003F030FADC
:1041C0008020000303F08EFB1F2003F087FA0749CD
:1041D000022003F0CBFA022003F0D8FA01210220DA
:1041E00003F0C8F9200003F0FFF910BDFD3E000008
:1041F000002802D0014A106001207047700500209D
:1042000070B50500002003F0DBFA012003F0D8FAB6
:104210000220FA26FF3003F003FA264803F062FB7F
:10422000F600254BB54221D9012431001C7028002D
:1042300004F0FEFB214B00201960214903F026FA0F
:104240003100280004F06EFB0100200003F01EFA8C
:104250000021080003F08EF92100200003F08AF904
:10426000200003F093FA0220FF3020E0FA2000241F
:1042700080001C70684307F0C9F80022114B05F05C
:104280003DFE04F04BFD411E200003F0FFF921002C
:10429000012003F0FBF90121200003F06BF921005C
:1042A000012003F067F9200003F070FA012003F009
:1042B0009BF970BD080800007405002078050020F7
:1042C000FFFF000080843E40022010B5FF3003F065
:1042D000A7F9134803F006FB002003F071FA01244C
:1042E000012003F06DFA80200E4AC00513682343B5
:1042F000136003F0FDF8082003F0AEF92100002060
:1043000003F058F92100200003F054F90649002079
:1043100003F02CFA0549200003F028FA10BDC0462E
:1043200008080000000022404943000065430000E7
:10433000022010B5FF3003F073F9024803F0D2FAFF
:1043400010BDC0460808000010B5002003F038FA80
:10435000FFF7EEFF024B1B68002B00D0984710BD03
:1043600070050020094B10B51868002802D0FFF72F
:1043700047FF09E0012003F023FAFFF7D9FF044BC0
:104380001B68002B00D0984710BDC0467805002060
:10439000700500208021064A10B5136809060B43FA
:1043A0001360082003F0EAFA03F006FE10BDC046D1
:1043B00000002540FF21124A10B5136818208B43D6
:1043C00066390B4313609639FFF780FC02211920F0
:1043D000FFF77CFC00211820FFF786FC0121192043
:1043E000FFF782FC074C2378002B07D103F076FD02
:1043F00001232370FFF7CEFF03F0F6FC10BDC0468B
:104400000003024080050020024A13680133136054
:104410007047C04684050020054A1368002803D071
:10442000802109060B4301E05B005B0813607047C5
:1044300080033A4070477047704770B520220C00E7
:104440000500081D002107F069F924232360EB68AB
:1044500063600D23A360FFF74DFD00222061110072
:10446000A86800F0BFF96061012070BD70B520221E
:104470000C000500081D002107F050F924232360DB
:10448000EB6863600C23A360FFF734FD002120611B
:10449000A86800F02BFA6061012070BD10B504001F
:1044A000102103F0FEFE200010BD10B50400102105
:1044B00003F0F7FE200010BD70B50400150000F0F9
:1044C000D9F8074B20000833A361049B257563626C
:1044D000044B0833A362059B24622463636370BDAD
:1044E000A8C10000C4C1000010B5372100F0CAF80F
:1044F00010BD000010B5007D0C000B380B220B28FE
:1045000014D804F0F1F9060D131313131313131336
:104510000F110749200007F0DCF90023E37210BDFA
:104520000449F7E70449F5E70449F3E70449F1E7EB
:1045300088C100008EC1000094C100009AC1000033
:10454000A0C10000037D0B2B02D1024B4B627047D0
:10455000014BFBE740420F0080841E0070B50C0049
:10456000050028220021200007F0D8F82100A868C3
:10457000FFF7C0FF0123E360EB68A86823610D2308
:1045800021006361FFF7DEFFAB68187D0B380B2855
:104590001ED804F0A9F9060E1D1D1D1D1D1D1D1D93
:1045A000151B0D4BA3610023E3618023DB05236210
:1045B00070BD0A4BA3610A4BE361FC239B05F6E740
:1045C000084BA361084BE361084BF0E7084BF8E7A1
:1045D0000023A361E361EAE7000048420000704263
:1045E0000000A0C10000A042000020C2CDCCCC3D04
:1045F0000000FA4270B50C000500282200212000BE
:1046000007F08CF82100A868FFF774FF0123E3602E
:10461000EB68210023610C23A8686361FFF792FF18
:10462000AB681B7D162B05D8142B10D80B2B05D08F
:104630000C2B0AD00023A361E36104E0074BA361C4
:10464000074BE361074B236270BD074BF7E7074B4E
:10465000A3610023E361064BF5E7C0460000A042DA
:104660000000A0410000A0400000BE420000C8427F
:10467000CDCCCC3D024B41718271C3607047C046C6
:1046800080BB000070B504000D0040790221FFF7E7
:104690001DFB01216079FFF727FBFFF72BFC024B85
:1046A0006574C018A06070BD30F8FFFF70B50500DC
:1046B0000E0000246879FFF74BFBB04205D1EA6891
:1046C000631CA24203D801246442200070BD1C0078
:1046D000F0E70000F0B5D1B00D000400FFF70AFCD0
:1046E000002D08D1FA22A368D200C31A934202D245
:1046F000207C51B0F0BD00250221A06025606079CA
:104700002571FFF7E3FA01216079FFF7EDFA012047
:10471000FFF7E8FB06216079FFF7D8FA29006079F6
:10472000FFF7E2FAA379153B012B18D82C48FFF7C5
:10473000DDFB60790221FFF7C9FA01216079FFF7FB
:10474000D3FA607CFFF7D2FB72B600212000FFF79E
:10475000ADFF431C07D10020207462B6C9E71420C6
:10476000FFF7C0FBE5E701212000FFF79FFF431C97
:10477000F1D06D4600272E0000212000FFF796FFA4
:10478000012130602000FFF791FF0237706008368A
:10479000502FF1D162B6002201262F6868687B1C79
:1047A00001D0431C02D100202074A2E7D110635C29
:1047B0005B00DBB2874211D3013263540835282AEB
:1047C000EBD16178237822795B18A1785B18E178C6
:1047D0005B18DBB29A42E6D10120E5E73343EBE711
:1047E0004C040000F8B50C0011000600FFF772FF42
:1047F000002805D0B3790C2B49D003D80B2B14D04B
:10480000334843E0153B012BFAD8FE23B578DB0192
:1048100028021840F378184304F084FF06F01CFEC9
:104820002C4A2D4B05F070FF48E0B07804F0C0FF33
:104830000323F356F778051C002B04DA011C2748E4
:1048400004F092FD051C0F20384006F0AFFD214A10
:10485000214B05F059FF0600281C0F0006F0FCFD57
:1048600002000B003000390004F0DEFF06F03CFED1
:10487000002C0BD006F0F0FD194A1A4B05F044FF4E
:104880000022194B04F0D0FF06F02EFEF8BD0F23D6
:10489000F078B578184006F089FD0E4A0E4B05F009
:1048A00033FF060028000F0004F082FF06F0D4FD5D
:1048B00002000B003000390004F0B6FF6DB206F0C4
:1048C00013FE002DD4DA80231B06C018D0E7C046A3
:1048D0000000C07F9A9999999999B93F000080BFCB
:1048E000CDCCCCCCCCCCFC3F00004040D0B50400BB
:1048F000FFF7F0FE002804D0A3790C2B03D80A2B75
:1049000010D8134822E0153B012BFAD8208840BA72
:1049100080B204F007FF06F09FFD0E4A0E4B05F033
:10492000F3FE11E0607806F041FD0A4A0A4B05F0FB
:10493000EBFE060020780F0006F038FD02000B00A9
:104940003000390004F070FF06F0CEFDD0BDC04647
:104950000000C07F9A9999999999B93FF0B5066876
:1049600085B072B607220327F40816407743BA4091
:10497000D143009101210800B840204B0290E41877
:104980002402A36893430343A36062B6B1407D252C
:104990000191013DEDB2002D2DD00220FFF7A6FAC6
:1049A000231D0393019A63681342F2D072B6236801
:1049B000019A93432360A368009A13400622BA40E9
:1049C0001343A36062B6F0204000FFF78FFA72B67F
:1049D000A368009A46201340029A01251343A3605E
:1049E000FFF784FA039B1B68F3409D4362B6CD201A
:1049F0004000FFF77BFA280005B0F0BD000440003E
:104A0000F8B5012702681A4BD408E41807230320DD
:104A10003D001A409540424393400018EE43DB436B
:104A200090402402394212D072B6226816402660A5
:104A3000A26813400343A3600A20FFF757FA2368D4
:104A40001D43256062B63720FFF750FAF8BD72B6F5
:104A5000226816402660A26813400343A3604120E9
:104A6000FFF744FA23681D43256062B60520EBE793
:104A700000044000F7B5056872B60320072207005E
:104A8000EC0815406F43BA40124BD143E41824029E
:104A9000A368012693430622BA4013433200AA407A
:104AA000A3602368019193432360FFF71FFAA36873
:104AB000019A0A2013403200BA401343A360FFF763
:104AC00015FA646862B63520FFF710FA2000E84056
:104AD0003040FEBD00044000F7B504000F0008267A
:104AE00001250192290039404B1E99412000C9B28D
:104AF0006D00013EFFF784FFEDB2002EF2D1019B65
:104B0000002B1DD172B6256807212800EB0803256C
:104B1000084045430800A8400A4E9B191B029A68AA
:104B2000824301200700AF403A439A602268114057
:104B30008840D3089B191B021C6884431C6062B622
:104B4000F7BDC04600044000F8B507000826002560
:104B500001243800FFF78EFF002800D025436400B1
:104B6000013EE4B2002EF4D12800F8BD70B50C006F
:104B70000022552126000500FFF7AEFF08362178F8
:104B8000002228000134FFF7A7FFB442F7D170BD1F
:104B900010B50022CC21FFF79FFF10BD00238360DA
:104BA000C36003828374704770B50D000400012157
:104BB0002800FFF78BF80023256020006360FFF7D3
:104BC000EDFF70BDF0B585B00391867C0500140043
:104BD000002E03D1FFF7C2FE002804D10020288256
:104BE000A87405B0F0BD002C29D03200F0210127B7
:104BF0002800FFF771FF00233E0001930293280075
:104C0000FFF738FF04002800FFF734FF012C19D10B
:104C1000012831D1402EE1D9029B2B74002B01D108
:104C20000133AB742B7A002BD8D000230835EA5C13
:104C30000399CA540133082BF9D10120D1E722008E
:104C4000EC21D4E7019BEB1884420DD12C7CB442BB
:104C50000ED91C7A3C40601E8441E4B2002C0BD17A
:104C60000296082E00D86E741A7ABA431A7209E0B6
:104C7000A41B60424441F0E70124019BEA18137A27
:104C80003B4313727F00210028000136FFB2FFF77B
:104C9000B7FEF6B2002F04D1019B01370133DBB21E
:104CA0000193019B072BAAD9B4E70000030030B59C
:104CB00041180F240020074A8B420AD01D78013387
:104CC00068400500000925401018555D007C6840CB
:104CD000F2E730BDE0C100000B780020422B08D87D
:104CE000272B07D80130102B03D0223B58425841C4
:104CF000C0B270470120283BDBB29840024B1840FD
:104D0000431E9841F4E7C04601000804092200232D
:104D1000C270034AC1600370426003727047C046AC
:104D200001010100002310B50400C3614370FFF7C7
:104D3000EDFF200010BD10B50C0007212000FFF78B
:104D4000B5FFE379181A43425841C0B210BDF8B517
:104D50000500C0680E0017000024FFF71FFF0122A6
:104D60003100E868FFF72EFF002805D0A74205D0E4
:104D70000134E4B2A742F2D2002005E0310028005D
:104D8000FFF7D9FF0028F3D0F8BDF8B50600C068DA
:104D90000F0015000024FFF7E1FDA04218D03900F4
:104DA000F068FFF7E3FE2200BE21F068FFF794FEF3
:104DB0002C000935F068FFF7C7FE20700134AC42C3
:104DC000F8D1F068FFF7CAFD013844424441E4B22B
:104DD0002000F8BD70B50400C0680D00FFF7BEFDEF
:104DE000002D12D1E068FFF7D3FE0022B421E06865
:104DF000FFF772FEE068FFF73DFE0500E068FFF791
:104E0000ADFD68426841C0B270BD2900E068FFF79F
:104E1000ADFEEAE710B5C068FFF72CFE013843424B
:104E20005841C0B210BD00000938C0B2022803D8F2
:104E3000024B4000C05A70470148FCE700C2000026
:104E4000EE02000010B54378002B03D000218078DB
:104E5000FEF74AFF10BD10B54378002B03D00121A7
:104E60008078FEF741FF10BD70B50400637908003B
:104E70001500002B0ED02378002B0BD12000FFF75C
:104E8000C9FF002805D1FFF735F8094B401B9842B0
:104E9000F4D970BDFFF7C8FF05002000FFF7D2FF6F
:104EA0002800FFF71FF82000FFF7D5FFF1E7C04605
:104EB000ED02000070B503220C0005000021013056
:104EC00006F02CFC0123E0682B70FFF747FDE0683B
:104ED000FFF75EFE22784421E068FFF7FDFDFFF753
:104EE00009F8686023790200002B03D02000E178E4
:104EF000FFF7BAFF280070BD012070B5105680235F
:104F0000C0431B03C017184009781C4B5478C018C5
:104F100013783B2919D115797F2D16D93A390B42CF
:104F20000BD09078084225D1830725D4144B400735
:104F3000C0171840134BC01870BDFC22DB00D20014
:104F40001340E40223431843F6E7E402DB00234363
:104F500018431029F0D1D1790029EDD00A4BC000B7
:104F60001840203804009079081AC00103F064FD4D
:104F70000019E1E70548DFE70548DDE70000F8FF35
:104F8000809DFFFF80E4FFFF80FF07000081FFFF9F
:104F90008081FFFF064B10B5984206DB04F0C2FB90
:104FA000F021890504F0C6F810BD0248FCE7C046B0
:104FB00081E4FFFF0000FEC28A18914206D0013151
:104FC0004B1E1B78002BF8D0002070470120FCE717
:104FD00070B505001400FFF7D8FE002811D0092293
:104FE00021002800FFF7E8FF03000020834208D1DA
:104FF00008212000FFF75AFE237A181A434258412D
:10500000C0B270BD30B50B780C0085B0102B03D149
:105010000C23180005B030BD01AD2A00FFF7D8FF02
:1050200000239842F5D023782A793B2B02D153B242
:10503000002BEDDB0B235F2AEBD007D8023B1F2AA6
:10504000E7D000233F2AE4D10A33E2E700237F2A96
:10505000DFD10C33DDE713B50400C068FFF79EFD18
:105060000023E371237201226946E068FFF7AAFD7D
:10507000002825D069462000FFF75DFE0028F2D009
:10508000E379694601332000E371FFF725FE00282C
:10509000E9D0237A013323722378002B07D16946A4
:1050A0002000FFF797FE002801D0012323706946F6
:1050B0002000FFF7A7FFE3788342D4D2E070D2E765
:1050C00013BD000030B585B001AA04000D00FFF744
:1050D0007FFF002806D02900200001AAFFF70CFF5F
:1050E00005B030BD0048FBE780E4FFFF10B5FFF7D7
:1050F000E9FFFFF74FFF10BD13B50A006946040032
:10510000FFF725FE002804D069462000FFF7EEFFD8
:1051100016BD0148FCE7C0460000FEC201207047F2
:1051200010B5002001F0A4FD10BD0000144B10B517
:105130001860144801F0B6FE002001F099FD01202E
:1051400001F029FE0021080002F01CF804210020D3
:1051500001F002FF0023190018001A0001F06CFE94
:1051600009490A48FEF7E0FE09490A48FEF7DCFE55
:1051700009480A49FEF7D8FE0020094B187010BDF7
:10518000A0050020E555000025530000D8060020AA
:1051900045530000C006002088050020655300002C
:1051A0009C05002010B501F0C5FCC31EDBB2020057
:1051B0000020022B02D80630801AC0B210BD10B5F4
:1051C00001F096FE10BD10B501F0E6FF00B210BD73
:1051D00007B56B46D8710733180001F0D1FC07BD45
:1051E000002370B50C0010491A000500080001F0FA
:1051F00023FE01F0ABFE0D4B012813D17F331C7051
:105200000B4801F053FF00222800210001F056FD59
:10521000084C094B20001968FEF780FF2000FEF7BC
:1052200007FF70BD7833EAE701020000480700205D
:10523000B8070020D8060020D406002010B50420AE
:1052400001F0FEFC0220FEF74DFE10BD10B501F08E
:1052500067FD10BD37B5164B0424A8331D781235F1
:10526000EDB20F2809D8013C072806D8013C0328D5
:1052700003D8013C8442A4416442C0210023490078
:105280001A00080001F0D8FD00230A22290000932B
:10529000200001F05FFF01F059FDFA21054CC90023
:1052A0002000FEF73BFF2000FEF7C2FE37BDC046E0
:1052B000480700208805002070B50D00140001F09B
:1052C00017FE280001F05CF801F04CFD200006F00C
:1052D0006DF80022064B05F017FA03F01FFD054C90
:1052E00001002000FEF71AFF2000FEF7A1FE70BDAE
:1052F00000408F40C006002010B500F0A3FF10BD95
:1053000010B500F0DBFF10BD10B500F06DFF10BD53
:1053100010B500F0A1FF10BD10B500F0C3FE0330C2
:1053200010BD0000002010B501F00AFC044B1B6802
:10533000002B03D05B68002B00D0984710BDC046FF
:10534000A0050020002010B501F0FAFB044B1B68FB
:10535000002B03D0DB68002B00D0984710BDC0465F
:10536000A0050020002010B501F0EAFB044B1B68EB
:10537000002B04D09B69002B01D00020984710BD62
:10538000A005002010B5002811D00A4A0123110001
:105390001468A04206D39468A04203D2DB00CB1865
:1053A000187910BD01330832162BF1D1FEE71F200A
:1053B000F7E7C04670C2000010B50A4B012807D1BC
:1053C000094A7F3311700948197001F06FFE10BD52
:1053D0001A0077321278012AF9D1034A7833117012
:1053E000F1E7C04648070020C4000020B8070020AD
:1053F0000023104970B51A000400080001F01CFDDC
:10540000002C07D00C4D21002800FEF787FE280055
:10541000FEF70EFE094B1B78002B06D0002001F092
:10542000B1FC074801F052FC70BD064B18688001C2
:10543000F8E7C04642020000C0060020B90600207E
:10544000FFFFFF00BC0600200023022170B51A00F8
:105450000400080001F0F0FC002C07D0094D2100E9
:105460002800FEF75BFE2800FEF7E2FD064B1B78E6
:10547000002B03D0054801F03BFC70BD044B1868BD
:105480008001F8E7C0060020B9060020FFFFFF00FA
:10549000BC060020F0B54B4C85B02378002B72D0B1
:1054A000002500F076FF257000F075FF01F0D4FCB8
:1054B0000400454801F0F6FEE3070DD54348FEF72A
:1054C000FDFD280001F03CFB414B1B68AB4203D0C3
:1054D0001B68AB4200D09847402323400193A307A9
:1054E00053D53C48FEF7EAFD02AB3B4EDF1DFF22E1
:1054F0003900300001F082FE384D280001F094FEA2
:10550000334B1B68002B40D09B689C46002B3CD043
:10551000019B002B3CD10D230C22EB56AA563000E8
:1055200065463978A84723060CD52D48FEF7C6FDF9
:10553000274B1B68002B05D09B69002B02D0E00590
:10554000C00F9847A30511D501F0F4FA042828D11B
:105550001E48FEF7B3FD002001F0F2FA1C4B1B6859
:10556000002B03D05B68002B00D09847A3060AD518
:105570001848FEF7A3FD164B1B68002B03D0DB6811
:10558000002B00D0984705B0F0BD019B002BCAD07E
:105590000F4B1B68002BC6D01B69002BC3D098474C
:1055A000C1E701F0C7FA0528E0D10A48FEF786FDF9
:1055B000002001F0C5FA064B1B68002BD6D0DB6833
:1055C000D1E7C0469C050020FFFF0000D806002060
:1055D000A0050020C0060020BA050020A405002078
:1055E00088050020012210B5024B1A70FFF752FF08
:1055F00010BDC0469C0500200C4B10B5040018706F
:10560000587000F017F8002C09D0E8203421C000B1
:1056100000F018FE4421064800F014FE10BDE820FA
:105620001421C00000F00EFE2421F4E7B80500208C
:1056300041070000012010B501F07AFC044B1878F6
:105640005A78824202D05870FFF7D6FF10BDC0468C
:10565000B805002010B5012806D0002001F068FC34
:105660000022034B5A7010BDFFF7E4FFFBE7C04672
:10567000B8050020F8B50C0016001D00FFF7EAFF82
:10568000200001F035FC0020FFF7B2FE0120FEF7FC
:1056900029FCFEF77BFD0700002438002100FEF7FF
:1056A00081FD8C4201D1854201D8012406E001F040
:1056B00073FD00B28642EFDA0028EDD0FFF7BEFDA1
:1056C0002000F8BD70B50024FFF7B4FF002001F002
:1056D000FDFA250001263000FEF704FC01F05CFD18
:1056E00003003340A34001341D43202CF3D101F0CB
:1056F000E7FD4519FFF7A2FD280070BD70B50A2827
:105700000DD8084BC000181804684568012088406F
:1057100005F04CFE2B00220004F0F0FB70BD0024CD
:105720000025F3E718C20000F0B589B0150013AAF0
:10573000127801910392212206A95218D27F049374
:10574000059225220FAB1B885218009310AB1B88C3
:10575000D17F029311AB1F786A4A12AB06001B7807
:105760001170002F00D1FF23674A1370002E04D060
:10577000012E00D175E009B0F0BD300001F0F9FA5A
:10578000624C0B22230098331E7023009C331D6053
:1057900023000198A4331A70FFF7F4FD2300A5330A
:1057A0001870230070331E70009B5749DA002300E5
:1057B00072331A802300564A74331A8023007633DA
:1057C0001E7001222300574077331F702300097891
:1057D000783319700399F223002900D113002200B5
:1057E00079321370230001227A3398341A70FFF74C
:1057F00097FC2078431E9841C0B2FFF72BFF200092
:1058000001F004FC434801F051FC0822424906A87B
:1058100005F068FF06A801F0B3F9404801F0F2F97D
:10582000280005F0F3FD02000B0000203C4904F0C5
:1058300065FB00223B4B04F067FF040002980D005B
:1058400005F0B4FD02000B002000290004F05CFF0D
:10585000354B002204F058FF03F060FA334B186018
:1058600089E7002001F085FA6B46187A01F08AFA80
:10587000264CEDB2230098331E702300A8331D7010
:10588000019A2B4B2900985C2300A9331870230040
:10589000049AAA331A70FFF731FF264B264A03F009
:1058A000EBF9431E98412300AB3318702300053DEC
:1058B00070331E70012D21D8009B0B2B1ED82300A6
:1058C0000C227C331A8023007E331F7023000E4A83
:1058D0007F3312781A702300039A80331A70059B65
:1058E00081342370FFF7A6FE144801F08FFB0948AE
:1058F00001F0DCFB0D4B124A1A603CE72300009AD2
:105900007C33DFE7B9060020C400002048070020F0
:1059100004180000B807002006C20000FF010000C4
:105920000000F03F0000204000408F40BC060020F7
:105930000EC2000047613040E17A14AEE00700205B
:10594000FFFF0000F0B587B0050018000CAB170092
:1059500004CB029119780EAB1E880FAB1B78009315
:1059600010AB1B78019313AB1B780393002D09D068
:10597000012D55D0029800F003FD504B149A1A6087
:1059800007B0F0BD4E4CF600230098331D70230085
:105990009C331A6023000B22A4331A70FFF7F2FC29
:1059A0002300A53318702300A0331F602300703339
:1059B0001D70230072331E802300424A74331A8004
:1059C000230076331D700122230000997733514064
:1059D00019700199F223002900D1130022007932B5
:1059E0001370230001227A3398341A70FFF798FB62
:1059F0002078431E9841C0B2FFF72CFE200001F032
:105A000005FB314801F052FB0822304904A805F09B
:105A100069FE04A801F0B4F82D4801F0F3F8A9E7F5
:105A2000274CD7B2230098331D702300A8331F7072
:105A3000284B185C2300A93318702300AA3319706F
:105A40003900FFF75BFE244B244A03F015F9431E8F
:105A500098412300AB3318702300053F70331D704D
:105A6000012F26D80B2E24D823000C227C331A8039
:105A70002300009A7E331A702300194A7F3312786C
:105A80001A702300019A80331A702300039A81331D
:105A900098341A70FFF744FB2078431E9841C0B237
:105AA000FFF7D8FD200001F0B1FA074801F0FEFA37
:105AB00060E7034B7C331E80DAE7C046D406002043
:105AC0004807002004180000B807002006C20000A4
:105AD000FF0100000EC2000047613040E17A14AEC1
